{
  "transactions": [
    {
      "hash": "0x283b6f94ffeb3976700476f9c180e5f23284c1f4f907be4e6eca8e29ea96be51",
      "transactionType": "CALL",
      "contractName": null,
      "contractAddress": "0x779877a7b0d9e8603169ddbd7836e478b4624789",
      "function": "transferAndCall(address,uint256,bytes)",
      "arguments": [
        "0x9DdfaCa8183c41ad55329BdeeD9F6A8d53168B1B",
        "3000000000000000000",
        "0xed6283a480be2a97ac4f505e84c80a5d6a60525e92ab78769b28112c86e5a591"
      ],
      "transaction": {
        "from": "0x0e5284ba5e3432a45ccb593f09dfd03f5b770a13",
        "to": "0x779877a7b0d9e8603169ddbd7836e478b4624789",
        "gas": "0x14cbb",
        "value": "0x0",
        "input": "0x4000aea00000000000000000000000009ddfaca8183c41ad55329bdeed9f6a8d53168b1b00000000000000000000000000000000000000000000000029a2241af62c000000000000000000000000000000000000000000000000000000000000000000600000000000000000000000000000000000000000000000000000000000000020ed6283a480be2a97ac4f505e84c80a5d6a60525e92ab78769b28112c86e5a591",
        "nonce": "0x3",
        "chainId": "0xaa36a7"
      },
      "additionalContracts": [],
      "isFixedGasLimit": false
    }
  ],
  "receipts": [
    {
      "status": "0x1",
      "cumulativeGasUsed": "0x1605994",
      "logs": [
        {
          "address": "0x779877a7b0d9e8603169ddbd7836e478b4624789",
          "topics": [
            "0xddf252ad1be2c89b69c2b068fc378daa952ba7f163c4a11628f55a4df523b3ef",
            "0x0000000000000000000000000e5284ba5e3432a45ccb593f09dfd03f5b770a13",
            "0x0000000000000000000000009ddfaca8183c41ad55329bdeed9f6a8d53168b1b"
          ],
          "data": "0x00000000000000000000000000000000000000000000000029a2241af62c0000",
          "blockHash": "0xf67d0953f70f7e693c2f87415c4a36b6cda687f8ef2bc90db3ec61952ec2fde6",
          "blockNumber": "0x7f78ba",
          "transactionHash": "0x283b6f94ffeb3976700476f9c180e5f23284c1f4f907be4e6eca8e29ea96be51",
          "transactionIndex": "0xd4",
          "logIndex": "0x18c",
          "removed": false
        },
        {
          "address": "0x779877a7b0d9e8603169ddbd7836e478b4624789",
          "topics": [
            "0xe19260aff97b920c7df27010903aeb9c8d2be5d310a2c67824cf3f15396e4c16",
            "0x0000000000000000000000000e5284ba5e3432a45ccb593f09dfd03f5b770a13",
            "0x0000000000000000000000009ddfaca8183c41ad55329bdeed9f6a8d53168b1b"
          ],
          "data": "0x00000000000000000000000000000000000000000000000029a2241af62c000000000000000000000000000000000000000000000000000000000000000000400000000000000000000000000000000000000000000000000000000000000020ed6283a480be2a97ac4f505e84c80a5d6a60525e92ab78769b28112c86e5a591",
          "blockHash": "0xf67d0953f70f7e693c2f87415c4a36b6cda687f8ef2bc90db3ec61952ec2fde6",
          "blockNumber": "0x7f78ba",
          "transactionHash": "0x283b6f94ffeb3976700476f9c180e5f23284c1f4f907be4e6eca8e29ea96be51",
          "transactionIndex": "0xd4",
          "logIndex": "0x18d",
          "removed": false
        },
        {
          "address": "0x9ddfaca8183c41ad55329bdeed9f6a8d53168b1b",
          "topics": [
            "0x1ced9348ff549fceab2ac57cd3a9de38edaaab274b725ee82c23e8fc8c4eec7a",
            "0xed6283a480be2a97ac4f505e84c80a5d6a60525e92ab78769b28112c86e5a591"
          ],
          "data": "0x0000000000000000000000000000000000000000000000004563918244f400000000000000000000000000000000000000000000000000006f05b59d3b200000",
          "blockHash": "0xf67d0953f70f7e693c2f87415c4a36b6cda687f8ef2bc90db3ec61952ec2fde6",
          "blockNumber": "0x7f78ba",
          "transactionHash": "0x283b6f94ffeb3976700476f9c180e5f23284c1f4f907be4e6eca8e29ea96be51",
          "transactionIndex": "0xd4",
          "logIndex": "0x18e",
          "removed": false
        }
      ],
      "logsBloom": "0x00001004000000000000010000000020000000000020000000000000020000000000000000000000000000000000000000020000000000000000000000000000000000000000000000000008000000000000000000000000000020000020000008000000000000000000000000000000000000000000400000000010000040000000000000000000000000010000800000000020000000000000000000000000000000000000000000000000010000000000000000000000000004000000000000000002000000000000000000000000000000000000000100000000000080000010000000000000800000000000000000000000000000000000000000000000",
      "type": "0x2",
      "transactionHash": "0x283b6f94ffeb3976700476f9c180e5f23284c1f4f907be4e6eca8e29ea96be51",
      "transactionIndex": "0xd4",
      "blockHash": "0xf67d0953f70f7e693c2f87415c4a36b6cda687f8ef2bc90db3ec61952ec2fde6",
      "blockNumber": "0x7f78ba",
      "gasUsed": "0xf0e5",
      "effectiveGasPrice": "0x43485e9",
      "from": "0x0e5284ba5e3432a45ccb593f09dfd03f5b770a13",
      "to": "0x779877a7b0d9e8603169ddbd7836e478b4624789",
      "contractAddress": null
    }
  ],
  "libraries": [],
  "pending": [],
  "returns": {},
  "timestamp": 1747577617,
  "chain": 11155111,
  "commit": "ee1430f"
}